:100000000C9434000C9451000C9451000C94510049
:100010000C9451000C9451000C9451000C9451001C
:100020000C9451000C9451000C9451000C9451000C
:100030000C9451000C9451000C9451000C945100FC
:100040000C9451000C9451000C9451000C945100EC
:100050000C9451000C9451000C9451000C945100DC
:100060000C9451000C94510011241FBECFEFD4E02A
:10007000DEBFCDBF11E0A0E0B1E0E0E6F8E102C0F4
:1000800005900D92A83BB107D9F713E0A8EBB1E0BA
:1000900001C01D92A430B107E1F70E94DD070C9466
:1000A0002E0C0C940000ECE7F0E080818F778083C9
:1000B000808180648083808180628083EAE7F0E0D1
:1000C00080818460808380818068808317B818B8BD
:1000D000089590917C00987F90937C0090917C0093
:1000E0008770892B80937C0080917A008064809354
:1000F0007A0080917A0084FFFCCF80917900089586
:100100000F931F93CF93DF938C01C0E0D0E083E087
:100110000E946900F801EC0FFD1F80832196CF3FFC
:10012000D105A9F7DF91CF911F910F91089500900C
:10013000E10202C0880F991F0A94E2F790938900A8
:100140008093880008950090E10202C096958795FB
:100150000A94E2F790938900809388000895209193
:10016000E10230E0AC01429FC001439F900D529FDD
:10017000900D1124909389008093880008956091D8
:10018000E10270E06F5F7F4F0E94130B7093890054
:100190006093880008951F93CF93DF93EC0110E0E4
:1001A0000BC083E00E946900FE01E80FF11D8F7013
:1001B0009081982790831F5F8881181790F3DF91B3
:1001C000CF911F9108952F923F924F925F926F921D
:1001D0007F928F929F92AF92BF92CF92DF92EF92D7
:1001E000FF920F931F93DF93CF9300D000D00F9215
:1001F000CDB7DEB77C01EFE7F0E01081938020916E
:10020000B2012B83422F50E05D834C83E40FF51F36
:10021000808082913196282F30E0C1802C2C3324AD
:100220007097B08070964B2C5524A0886A2C772448
:100230007197D080329600813F96A785B189E12FD2
:10024000F0E0FA83E983AF014150504024173507AD
:1002500019F481E090E009C0882329F080E090E063
:1002600061E070E004C080E090E060E070E024169F
:10027000350611F4019604C0CC2011F06F5F7F4F5A
:100280004416550611F4019604C0BB2011F06F5FAF
:100290007F4F6416750611F4019604C0AA2011F070
:1002A0006F5F7F4FD11611F4019604C0DD2011F06D
:1002B0006F5F7F4F011711F4019604C0002311F006
:1002C0006F5F7F4FA11711F4019604C0AA2311F0AC
:1002D0006F5F7F4FB11711F4019604C0BB2311F07B
:1002E0006F5F7F4F882049F4EC81FD81EF77F070DC
:1002F000EE0DFF1D860F808326C0882D90E0EC81D7
:10030000FD81EF77F07084179507D4F4EE0DFF1D93
:10031000220D331D280F391F240D351D260D371DC5
:100320002D0D311D200F311D2A0F311D6F5F7F4FA5
:10033000C9018B0F911D0E94270B960E908203C05E
:10034000EE0DFF1D1082EC81FD81EF77F070EE0D58
:10035000FF1D808190E029813A818217930714F074
:10036000115010838B818F5F8093B2018F3648F0DC
:1003700081E18093B2018091BB0191E08927809354
:10038000BB010F900F900F900F900F90CF91DF91C6
:100390001F910F91FF90EF90DF90CF90BF90AF90A3
:1003A0009F908F907F906F905F904F903F902F9095
:1003B0000895CF93DF93FC0120818091BA018F5F74
:1003C0008F708093BA0190E0EC0134E0CC0FDD1F18
:1003D0003A95E1F7CE0FDF1FDC011196AF70B070D8
:1003E00084E0AA0FBB1F8A95E1F7AE0FBF1FFD0186
:1003F00031E0422F50E02FEF8A81813810F094E0F5
:1004000001C090E08981813808F09260888181384C
:1004100008F09160BA0102C0759567959A95E2F768
:1004200060FF02C0218303C011961C9211973F5FA9
:100430002196319611963031F9F6DF91CF910895DA
:1004400020E030E0F901E058FF4FDC015FEF23527C
:100450003F4F90894189417087858170480F808125
:100460008170480F80A18170480F82913196817010
:10047000480F81818170480F878D8170480F81A15D
:100480008170480F433041F0892F90E08170907067
:10049000840F911D039721F451965C93519703C0EB
:1004A00051961C92519731961196E217F30789F6EF
:1004B0008091B80191E089278093B80108958091D7
:1004C000C902882311F481E00CC0813019F4109224
:1004D000C90209C0823011F483E003C0833019F4EB
:1004E00082E08093C902862F08951F93162FE09112
:1004F0000203F0E0EE0FFF1FE050FF4F2091E202F9
:10050000DC01A20FB11D0190F081E02D8C9190E0F3
:100510000995812F1F9108952091E202FC01E20FBD
:10052000F11D808187BD862F0895FC018091CC024A
:10053000882321F48091E2028F5F11C0813021F481
:100540008091E20281500BC0823021F48091E2025E
:10055000805F05C0833029F48091E202805180934E
:10056000E2028091E202E80FF11D80818823B1F45C
:100570008091C902882311F481E008C0813019F408
:100580001092C9020895823021F483E08093C90259
:100590000895833019F482E08093C9020895FC0124
:1005A0008091CC02882321F48091E202815011C015
:1005B000813021F48091E2028F5F0BC0823021F400
:1005C0008091E202805105C0833029F48091E202DB
:1005D000805F8093E2028091E202E80FF11D80814A
:1005E0008823A1F48091C902882311F481E00CC012
:1005F000813019F41092C90209C0823011F483E0ED
:1006000003C0833019F482E08093C902862F0895D5
:100610008091CC02882321F48091E202805F11C096
:10062000813021F48091E20280510BC0823021F4AC
:100630008091E2028F5F05C0833029F48091E2024D
:1006400081508093E202862F08958091CC02882306
:1006500021F48091E202805111C0813021F4809117
:10066000E202805F0BC0823021F48091E20281506F
:1006700005C0833029F48091E2028F5F8093E2020B
:10068000862F0895AC013091CC0211C0332311F4B0
:100690002F5F0BC0313011F4215007C0323011F4FC
:1006A000205F03C0333019F420512093E2022091DF
:1006B000E202FA01E20FF11D8081882339F7862FCB
:1006C00008952091E202FC01E20FF11D8081882350
:1006D000A9F48091C902882311F481E008C0813017
:1006E00019F41092C9020BC0823021F483E0809388
:1006F000C90205C0833019F482E0F9CF1082862F39
:100700000895AC018091E202282F30E0FA01E20F57
:10071000F31FE081EE2339F0D9011197A40FB51F23
:100720008C918823A9F08091C902882311F481E07B
:1007300008C0813019F41092C9020BC0823021F434
:1007400083E08093C90205C0833019F482E0F9CFB9
:10075000EC93862F0895209101032C3069F4FC015D
:10076000E60FF11D808181836F3F19F48DE0809346
:100770000103862F8F5F08958091E502860F08950B
:100780001F93CF93DF93162F209101032D3091F407
:100790002091E902C22FD0E0C60FD11DC80FD91F8A
:1007A00083E00E94690088838091E9028F5F8093D3
:1007B000E90203C08091E502180F812FDF91CF91EC
:1007C0001F910895262F809101038F5F809301036D
:1007D0006CE30E94070B992321F487B5809587BDB0
:1007E00003C08091E502280F822F0895262F862FBF
:1007F00067E00E94070B9330E1F0943028F49130C9
:1008000069F0923070F407C09530C9F09530A0F0CF
:100810009630D9F419C0219A89E005C0219A89E05F
:1008200010C0219A8AE08093810088E08093E102E1
:100830000CC0219A8AE005C0219A8BE002C0219A5F
:100840008CE08093810001C021988091E502820FA5
:1008500008959C01862FE62FF0E03197D901AE0F65
:10086000BF1F9C9190959C933296E20FF31F90814D
:10087000909590839091E502890F08951F93CF93EF
:10088000DF93EC01162F83E00E946900837021F44E
:100890008091E2028F5F05C0813031F48091E202E5
:1008A00081508093E20209C09091E202823011F4FB
:1008B000905F01C090519093E2028091E202C80FD4
:1008C000D11D888187BD8091E502810FDF91CF9195
:1008D0001F910895FF920F931F93CF93DF938C0185
:1008E000F62E8091E202C82FD0E02196C00FD11FD2
:1008F00083E00E9469008883E0910203F0E0EE0F3C
:10090000FF1FE050FF4F8091E202080F111D019080
:10091000F081E02DD8018C9190E009958091E5025D
:100920008F0DDF91CF911F910F91FF9008951F932D
:10093000162FE0910203F0E0EE0FFF1FE050FF4F93
:100940002091E202DC01A20FB11D0190F081E02DA7
:100950008C9190E009958091E502810F1F91089597
:10096000FC01E60FF11D829131969181890F87BDBF
:100970008091E502860F0895FC01E60FF11D8FEFCF
:1009800080838183862F8E5F0895FC01E60FF11D21
:10099000808187FD04C0818380813197808380912D
:1009A000E502860F0895FC01E60FF11D12923196C3
:1009B00011828091E502860F0895DC01462F209177
:1009C000E80227FF0CC0FC01E60FF11D808163E007
:1009D0000E94070B913019F49093E80225C0223051
:1009E0006CF0FD01E40FF11D808163E00E94070BB4
:1009F000992321F48FEF8093E80216C0A40FB11D54
:100A00008C9190E0332727FD3095BC01629FC00197
:100A1000639F900D729F900D112474E095958795BA
:100A20007A95E1F78093E5028091E502840F0895BD
:100A3000FC01E60FF11D8281DF01A80FB11D81814C
:100A4000E80FF11D80818C93862F8D5F08959C01A6
:100A5000862FE62FF0E0D901AE0FBF1F12969C91B2
:100A60001297E90FF11DE20FF31F11969C91119758
:100A7000A90FB11D90812C91920F90838D5F0895E5
:100A80009C01862FE62FF0E0D901AE0FBF1F129612
:100A90009C911297E90FF11DE20FF31F11969C91A3
:100AA0001197A90FB11D90812C91921B90838D5F9E
:100AB0000895FC01E60FF11D8181860F0895E62F50
:100AC000F0E0DC01AE0FBF1F12962C911297820F3F
:100AD000911DE80FF91F8081882319F411968C91DC
:100AE0000895862F8D5F0895FC01E60FF11D818129
:100AF0000895FC01DC01A60FB11D12968C9112978E
:100B0000860FE80FF11D808181508083882319F4BE
:100B100011968C910895862F8D5F0895862F8D5F95
:100B20000895FC01E60FF11D8281DF01A80FB11DC0
:100B30008181E80FF11D9C918081981719F0862F13
:100B40008A5F0895862F8D5F08951F93162FE09179
:100B50000203F0E0EE0FFF1FE050FF4FDC01A60F95
:100B6000B11D0190F081E02D11968C9190E00995D6
:100B7000812F8D5F1F910895FC01E60FF11D828189
:100B800087BD862F8D5F08951F93162FA0910203B6
:100B9000B0E0AA0FBB1FA050BF4FFC01E60FF11D34
:100BA00022913196818190E0ED91FC91820F911D0F
:100BB00009958091E502810F1F910895FC01E60FD0
:100BC000F11D829131969181890F87BD8091E50257
:100BD000860F0895FC01E60FF11D818118161CF4A3
:100BE00080818F5F80838091E502860F0895FC01EC
:100BF000E60FF11D818187FF02C081E8808380912B
:100C0000E502860F0895862F9091E2029F5F9093F0
:100C1000E2020895862F9091E20291509093E202B1
:100C200008952091E202FC01E20FF11D80818F5FA7
:100C30008083862F08952091E202FC01E20FF11DCE
:100C4000808181508083862F08951F93162FE09115
:100C50000203F0E0EE0FFF1FE050FF4F2091E20291
:100C6000DC01A20FB11D0190F081E02D8C9190E08C
:100C70000995812F1F9108952091E202FC01E20F56
:100C8000F11D808187BD862F0895EF92FF921F93FB
:100C9000162F2091E2027C01E20EF11C83E00E94FB
:100CA0006900F7018083812F1F91FF90EF900895D5
:100CB0008091C8028F5F8093C802843110F0109237
:100CC000C802E091C802F0E0E351FD4F6083862F37
:100CD00008952091E202FC01E20FF11D808188233A
:100CE00051F0E091C802F0E0E351FD4F8081282FE0
:100CF00030E0215030408091C80281508093C8027A
:100D0000822F0895862F9091E2029F5F9093E202D6
:100D10009091E502890F08951F93162F83E00E949A
:100D200069008093E2028091E502810F1F9108958E
:100D30001F93162F82E00E9469008093E202809147
:100D4000E502810F1F91089582E00E946900909151
:100D5000E502890F0895FF920F931F93F62E2091BD
:100D6000E2028C01020F111D83E00E946900F8016C
:100D700080838091E5028F0D1F910F91FF90089560
:100D8000862F9091E20291509093E2029091E502B9
:100D9000890F08952091E202FC01E20FF11D80818C
:100DA0008F5F80838091E502860F08952091E20293
:100DB000FC01E20FF11D8081815080838091E5026A
:100DC000860F08951F93162FE0910203F0E0EE0FB7
:100DD000FF1FE050FF4F2091E202DC01A20FB11D86
:100DE0000190F081E02D8C9190E009958091E502D1
:100DF000810F1F9108952091E202FC01E20FF11D85
:100E0000808187BD8091E502860F08951F93162F7C
:100E1000E0910203F0E0EE0FFF1FE050FF4F209142
:100E2000E202DC01A20FB11D0190F081E02D8C9156
:100E300090E009958091E502810F1F910895862F1A
:100E40009091E20297BD9091E502890F0895FC010F
:100E5000E60FF11D80818F5F80838091E502860F10
:100E60000895FC01E60FF11D8081815080838091FF
:100E7000E502860F0895FC01E60FF11D8081880FC1
:100E800080838091E502860F0895FC01E60FF11D35
:100E90008081880F880F80838091E502860F0895F6
:100EA000FC01E60FF11D8081880F880F880F808379
:100EB0008091E502860F0895DC01FC01E60FF11D2B
:100EC0008181882329F48091E202A80FB11D6C91E1
:100ED0008091E502860F0895FC01E60FF11D8181E6
:100EE00087FD02C0860F08958091E502860F089560
:100EF0009C01E62FF0E031978FEFEF3FF80711F4F8
:100F0000EFEFF0E0E20FF31F808187FD05C0F901EC
:100F1000E60FF11D808181838091E502860F08959F
:100F2000FC01862FDF01A60FB11D11969C91119730
:100F3000E90FF11D90819C939091E502890F08952E
:100F4000862F9091E502890F08958091E80287FF2E
:100F500002C081E001C08FEF8093E8028091E5023A
:100F6000860F0895862F9091E502890F0895FF92CC
:100F70000F931F938C01F62E82E00E9469000F0DE3
:100F8000111DF80180838091E5028F0D1F910F9153
:100F9000FF900895FF920F931F938C01F62E83E02C
:100FA0000E9469000F0D111DF80180838091E502F8
:100FB0008F0D1F910F91FF9008956F927F928F92E6
:100FC0009F92AF92BF92CF92DF92EF92FF920F93D8
:100FD0001F93DF93CF93CDB7DEB7CA5AD0400FB679
:100FE000F894DEBF0FBECDBFDE01A958BF4FEEE7BC
:100FF000F1E084E301900D928150E1F7DE015B9610
:10100000EEE6F1E080E101900D928150E1F7DE0122
:10101000DB96ECE5F1E082E101900D928150E1F781
:10102000DE011196E0E5F1E08CE001900D92815037
:10103000E1F7DE01AF59BF4FEAE3F1E086E101904D
:101040000D928150E1F7DE01A35BBF4FE6E2F1E0D4
:1010500084E101900D928150E1F7DE011D96E8E1F7
:10106000F1E08EE001900D928150E1F7DE019B9658
:10107000E8E0F1E080E101900D928150E1F70E94FB
:1010800053008CEB91E00E9480008AB187648AB99A
:10109000219A80E4809380008AE08093810083E439
:1010A00084BD85B58D6085BD8FE080937E005898A6
:1010B000599A5A981092C70281E08093E502809372
:1010C000E8021092C9021092CC027E010894E11C41
:1010D000F11CE1E6AE2EB12CAC0EBD1E7DE4872ED8
:1010E000912C8C0E9D1E67E7662E712C6C0E7D1E5A
:1010F0005CE0C52E08E044E0D42E80E00E94690048
:101100008093E70281E00E9469008093EC0282E014
:101110000E946900982F8093CA028091EC02882374
:1011200021F48091C7028093EC02992321F48091ED
:10113000C7028093CA022091CA02822F83708093D3
:1011400002038091E9028F5F8093E9026091E702D8
:10115000162F1295169517701093CB02922F9F7130
:101160009F5F9093EB022295269527702093E602CD
:1011700070E06F7170706F5F7F4F90E00E94270B7F
:10118000892B09F0F3C0133009F46BC0143040F41C
:10119000113021F12091C702123008F04EC00DC06D
:1011A000153009F491C0153008F47BC0163009F4ED
:1011B00099C0173009F0DAC0ABC0E22FF0E0E45478
:1011C000FE4F80818093E4026AE10E94070BE92FC1
:1011D000F0E0EE0FFF1FE60DF71D55C06091C7024E
:1011E000E62FF0E0E454FE4FE081E093E402F0E00B
:1011F000E770F070EE0FFF1FEE0DFF1D028CF38DF8
:10120000E02D8CEB91E00995E82F8093C702809147
:10121000E8028093E502F0E0E454FE4FE081EF3F06
:1012200009F0A4C087FF03C01093E8029FC0882381
:1012300009F49CC0E093E80299C0E22FF0E0E45486
:10124000FE4F80818093E40269E00E94070BE92F42
:10125000F0E0EE0FFF1FEE0DFF1D02ACF3ADE02D31
:1012600015C02091C702E22FF0E0E454FE4F8081C8
:101270008093E40266E00E94070BE92FF0E0EE0F96
:10128000FF1FEE0DFF1D0190F081E02D8CEB91E032
:10129000622F09958093C7028091E8028093E5024E
:1012A00065C02091C702E22FF0E0E454FE4F808138
:1012B0008093E4026BE00E94070BE92FF0E0EE0F51
:1012C000FF1FEA0DFB1DDFCF9091C702E92FF0E071
:1012D000E454FE4F80818093E40287BD8091E50253
:1012E000890F42C02091C702E22FF0E0E454FE4F84
:1012F00080818093E40267E00E94070BE92FF0E011
:10130000EE0FFF1FEE0DFF1D0484F585E02DBECF0F
:101310002091C702E22FF0E0E454FE4F80818093D9
:10132000E4026AE00E94070BE92FF0E0EE0FFF1FD6
:10133000E80DF91D0190F081E02D8CEB91E0622F1A
:1013400009958093C7029091C902992311F48F5F88
:101350000BC0913011F4815007C0923011F4805FBE
:1013600003C0933019F480518093C7026091EB025F
:101370008091E9020E94070B992369F4E091E6024B
:10138000F0E0EE0FFF1FEE0DFF1D02A4F3A5E02D10
:101390008CEB91E009952091EC02822F877080936D
:1013A0000303833099F0843028F48130E9F08230EF
:1013B00050F418C0853091F0853050F08630B1F08F
:1013C0008730E9F416C0589A599819C058980FC038
:1013D0009BB18091C7028770892B10C08091C70292
:1013E00080FF02C05A980BC05A9A09C0589A599A5D
:1013F00006C09BB18091C702877089278BB9822F65
:1014000082958F708093EA028730B9F1883070F44A
:10141000833039F1843028F48130E9F08230F0F4FF
:1014200018C0853021F1863028F51EC08B30A9F117
:101430008C3028F4893039F18A3050F521C08D3054
:10144000B1F18D3078F18E30C1F18F3009F055CE89
:101450003BC0219852CE219A89E017C0219A89E099
:1014600019C0219A89E01AC0219A89E01DC0219AE9
:101470008AE00BC0219A8AE00DC0219A8AE00EC052
:10148000219A8AE011C0219A8BE08093810012C0DA
:10149000219A8BE0809381001AC0219A8093810069
:1014A00082E00FC0219A8BE08093810026CE219AA2
:1014B000C09281000093E10220CE219AC092810067
:1014C00086E08093E10219CE219AC0928100D092E9
:1014D000E10213CE1F93CF93DF93162FEC01C60FBB
:1014E000D11D8981882371F48A912196181654F4AC
:1014F0000E948B0B6AE070E00E94270B049714F4A3
:1015000081E088838091E502810FDF91CF911F9167
:1015100008951F93CF93DF93162FEC01C60FD11DB3
:101520008981181654F40E948B0B6AE070E00E94C7
:10153000270B049714F48FEF88838091E502810FC5
:10154000DF91CF911F9108959F92AF92BF92CF925A
:10155000DF92EF92FF920F931F93CF93DF93FC01E3
:10156000F08021818C0180E090E0EC01C158DF4FD8
:10157000A22EBB2499249394A1E8EA2EFEEDCF2E4F
:10158000D12CC80ED91E8889F801808B8F1510F0D8
:10159000E08A25C0882321F08F5FF801808B1FC06F
:1015A0008881882311F08F1578F088A1882311F0A5
:1015B0008F1550F08F85882311F08F1528F08989B9
:1015C000882369F08F1558F40E948B0B6AE070E055
:1015D0000E94270B8A159B0514F4F801908A0F5F6F
:1015E0001F4F2196CC15DD0571F68091B90191E070
:1015F00089278093B901DF91CF911F910F91FF90BF
:10160000EF90DF90CF90BF90AF909F900895991B7F
:1016100079E004C0991F961708F0961B881F7A95E9
:10162000C9F780950895AA1BBB1B51E107C0AA1FEB
:10163000BB1FA617B70710F0A61BB70B881F991F73
:101640005A95A9F780959095BC01CD01089597FB17
:10165000092E07260AD077FD04D0E5DF06D000204A
:101660001AF4709561957F4F0895F6F790958195DE
:101670009F4F0895A0E0B0E0E0E4FBE00C94DD0BA8
:10168000EC01A880B980CA80DB80A114B104C10438
:10169000D10441F484E2A82E89EDB82E8BE5C82E42
:1016A00087E0D82EC601B5012DE133EF41E050E0CF
:1016B0000E94BA0B27EA31E440E050E00E949B0B05
:1016C0007B018C01C601B5012DE133EF41E050E013
:1016D0000E94BA0BCA01B9012CEE34EF4FEF5FEF55
:1016E0000E949B0B6E0D7F1D801F911F97FF04C0F2
:1016F0006150704080409048688379838A839B83DF
:101700009B013F77C901CDB7DEB7EAE00C94F90B36
:101710000E943A0B089583EB91E00E943A0B0895E2
:10172000A0E0B0E08093B3019093B401A093B50121
:10173000B093B6010895629FD001739FF001829F1C
:10174000E00DF11D649FE00DF11D929FF00D839F50
:10175000F00D749FF00D659FF00D9927729FB00DED
:10176000E11DF91F639FB00DE11DF91FBD01CF0100
:101770001124089597FB092E05260ED057FD04D09D
:101780004BD00AD0001C38F45095409530952195E7
:101790003F4F4F4F5F4F0895F6F7909580957095A6
:1017A00061957F4F8F4F9F4F08952F923F924F9299
:1017B0005F926F927F928F929F92AF92BF92CF92E1
:1017C000DF92EF92FF920F931F93CF93DF93CDB7EA
:1017D000DEB7CA1BDB0B0FB6F894DEBF0FBECDBF62
:1017E00009942A88398848885F846E847D848C8433
:1017F0009B84AA84B984C884DF80EE80FD800C813C
:101800001B81AA81B981CE0FD11D0FB6F894DEBF1E
:101810000FBECDBFED010895A1E21A2EAA1BBB1B7E
:10182000FD010DC0AA1FBB1FEE1FFF1FA217B307AC
:10183000E407F50720F0A21BB30BE40BF50B661FC2
:10184000771F881F991F1A9469F760957095809586
:1018500090959B01AC01BD01CF010895F894FFCF95
:101860009700A300AF00BF00CB00A40AE300D9019A
:10187000E300A40A2002CB00AB03C003E203F6039B
:1018800029043E046A045F0275028C029502CF02AD
:10189000080325034203610381031805270540055A
:1018A00059055F05740579058E059105A505BC05EB
:1018B000C405DE05EA05890AF7056A0A03060A0671
:1018C00011061B0625063C06450658066906B7079D
:1018D000CA079704B004BC04C504D304DD0406079A
:1018E0001F078206C006CA06D6068C069806A406FE
:1018F000AB06E206FB06270731073B074507500703
:101900005C076C0778079007B707CA07A007A50709
:08191000B20711010000000004
:00000001FF
